:020000040000fa
:10000000f07f002089820000d36e00005b78000042
:1000100000000000000000000000000000000000e0
:100020000000000000000000000000004757000032
:100030000000000000000000475700002d8d000068
:100040004757000047570000475700004757000038
:100050004757000047570000475700004757000028
:10006000475700004757000047570000f984000039
:10007000554d000047570000118000004757000011
:100080004757000047570000558d00007d8d000048
:10009000475700000000000000000000058d000030
:1000a00047570000475700004757000047570000d8
:020000040000fa
:1000b000f8b5c046f8bc08bc9e467047698200008f
:1000c000f8b5c046f8bc08bc9e46704741820000a7
:020000040000fa
:0800d000fc66000001000000c5
:020000040000fa
:1000d800002210b5044b1a608032596898681201e2
:1000e80004f026f810bdc046804e00206423434328
:1000f8000248c018436b18787047c046d0450020a6
:10010800642343430248c018436b58887047c0466d
:10011800d0450020642343430148c018406b704712
:10012800d0450020642343430248c018436b5b68f2
:100138000b607047d04500206423434330b50e4818
:10014800c018436b5c6858881b78012b0ad00028bc
:1001580007d000230022e5580132cd5004339042e5
:10016800f9dc30bd00230028fbd0e25cca5401331f
:100178009842fadcf5e7c046d045002064234343a3
:1001880030b50e48c018436b5c6858881b78012b43
:100198000ad0002807d000230022cd580132e550ac
:1001a80004339042f9dc30bd00230028fbd0ca5c40
:1001b800e25401339842fadcf5e7c046d045002006
:1001c800034b10b51b68002b01d0fff781ff10bd52
:1001d800804e00209c22304bd20070b501245a6614
:1001e8009a661d006c226c359c54543a6a801a0039
:1001f800042174321a67294a2948116111001431ff
:10020800d160242154540021916211000c31d16233
:100218002449c66851632449d46311638168dc802a
:10022800916300211c814f3416641955060014008f
:100238001036483451641e60197119615961996109
:1002480019771c62194c5d63dc63194c1c64194cea
:100258005c64194c9c64194cdc64140040345c6286
:10026800140038349c621c006434dc6214002432ac
:100278009a63202230341c63845c002c01d0d9603e
:1002880081540368002b01d0fff722ff01210c489d
:1002980000f0eafe70bdc046d04500205046002060
:1002a800804e00209c460020450000014957000070
:1002b80075570000c957000089580000c158000050
:1002c800984d0020f0b564273b00c64643431d4dba
:1002d80000b5eb181b7906005f439846eb199b6a3b
:1002e8005a68002a0bdd002418682201801803f0e0
:1002f8008dffeb199b6a01345a68a242f4dc43462d
:1003080064275f43eb195b6a5a68002a0bdd0024f7
:1003180018682201801803f079ffeb195b6a013431
:100328005a68a242f4dc64235e430023ad192a6ba9
:100338002b616b61ab612b770120937004bc9046f5
:10034800f0bdc046d045002064235843064b10b585
:100358001b181a7a0020012a00d010bd587a01f023
:1003680011f80120f9e7c046d045002070b5051ef8
:10037800074c07d0642068432418a36a186803f060
:100388005bff70bde16a200008f072fdf2e7c0462d
:10039800d045002010b5fff7e9ff012010bdc04689
:1003a800642343430348c0180023026b0377937008
:1003b8007047c046d0450020642343430248c01814
:1003c800036b98787047c046d045002064234343a8
:1003d80070b50e4deb181c6b1a7f21884a43002913
:1003e80008d0930062680024d2180023013310c299
:1003f8009942fbdc642358432d18ab6a0022186825
:100408000021012307f084ff70bdc046d0450020bd
:10041800642242430a4930b58a18137f146b0133aa
:10042800dbb21377e278551eab4201d10125a570e6
:10043800934204d364235843002309180b7730bd33
:10044800d0450020642343430748084ac018c368be
:1004580010b5934205dc0133c360c36c984780b282
:1004680010bd0348fce7c046d0450020a086010027
:10047800feff000064234343034810b5c018836c93
:10048800984780b210bdc046d0450020002300b573
:1004980083b0019364334343034801a9c018436cf4
:1004a800984703b000bdc046d0450020642353439d
:1004b80010b501000248c018c36b984710bdc0466c
:1004c800d045002070b5010064244c430648041947
:1004d800236c98470500012801d0280070bda36a45
:1004e800186803f0a5fef8e7d045002030b5134c96
:1004f80083b02379984201d003b030bd0028fbd0e7
:100508000020fff7dfff05000128f5d10020fff7e5
:100518005dff002301a901932000636c9847237fa6
:10052800216b0133dbb22377ca78501e834200d196
:100538008d709342e0d300232377dde7d045002078
:1005480064224243044b10b59b181b79834202d1a5
:100558001800fff7cbff10bdd045002010b564246c
:100568006043104c24182000a36c984780b20128df
:1005780014d1e3680c4a93420edc0133e360200097
:10058800e36c9847094a81b203000020914200d1e8
:1005980010bd1804000cfbe70548f9e701204042ac
:1005a800f6e7c046d0450020a0860100ffff000006
:1005b800feff0000f0b5c646642400b55443214e42
:1005c80082b034190100e36b200015009847002819
:1005d80029d02800fff776ff012824d12800fff74b
:1005e800f5fe002301a9019398462000636c984703
:1005f800070001281ad12800fff7b0ff237f216bdd
:100608000133dbb22377ca78541ea34200d18f701e
:10061800934204d364235d4300237619337702b0f1
:1006280004bc9046f0bd01204042f8e743464246ec
:100638002377236b28009a70fff798fe0220404228
:10064800ede7c046d0450020f0b564245443354e4c
:1006580083b034190100e36b200015009847002887
:100668005dd02800fff72eff012858d12800fff79a
:10067800adfe002301a901932000636c984701286f
:1006880003d1236b9b78002b27d123799d421bd064
:1006980064226a43b218137f116b0133dbb21377fc
:1006a800ca78501e834213d0934207d228000227eb
:1006b800fff75cfe7f42380003b0f0bd64236b4354
:1006c800f61800233377f1e72800fff70fffdfe77d
:1006d800012088709342e9d3f0e72800fff73eff36
:1006e800237907009d4213d064226a43b218137f0e
:1006f800116b0133dbb21377ca78501e83420bd0db
:100708009342d8d364235d43002376193377d2e725
:100718002800fff7ebfee7e701208870f0e70127e4
:100728007f42c8e7d0450020f0b564245443384ed2
:1007380083b034190100e36b2000150098470028a6
:1007480028d02800fff7befe012823d12800fff794
:100758003dfe002301a901932000636c98470128fe
:100768003ad1236b9a78002a17d02800fff7f6feb3
:10077800237907009d4209d064200023684330187c
:10078800026b03779370380003b0f0bd2800fff7c1
:10079800adfef1e701277f42f5e7227f0132d2b2b1
:1007a8002277d9784c1ea24200d198708a4204d38d
:1007b800642300226b43f3181a77642068433018c7
:1007c80003799d4202d12800fff790fe02272800f6
:1007d800fff7ccfd7f42d6e723799d4202d128005e
:1007e800fff784fe64226a43b218137f116b01334a
:1007f800dbb21377ca78501e834201d1012088707a
:100808009342e3d364200023684330180377dde77d
:10081800d0450020f8b5de4657464e464546924636
:10082800e0b59b46002a20dd8bb298464b009946de
:10083800070000255b4664245c430f4b40469c46fa
:100848006444a26a2b0116680135f61803f05afcb5
:10085800434682b23900300003f09cfc00234f4429
:1008680023616361a361aa45e4d13cbc90469946e3
:10087800a246ab46f8bdc046d0450020f0b583b0cf
:100888000500fff71ffe012825d164242800fff783
:100898009dfd00236c43114e0193341901a92000da
:1008a800636c98470700012815d12800fff756fe0a
:1008b800237f216b0133dbb22377ca78541ea3420e
:1008c80000d18f70934204d364235d4300237619cb
:1008d800337703b0f0bd01204042fae7d04500204d
:1008e800f0b5c64600b582b00500fff7ebfd8046bf
:1008f800012827d164242800fff768fd00236c43f2
:10090800244e0193341901a92000636c984707000d
:1009180001281ad12800fff721fe237f216b01331c
:10092800dbb22377ca78541ea34200d18f7093425a
:1009380004d364235d43002375192b7702b004bcec
:100948009046f0bd01204042f8e7237f216b013338
:10095800dbb22377ca78501e834218d0934204d35f
:10096800642300226b43f3181a772800fff7fefc74
:1009780064236b43f61833799d4202d0022040422b
:10098800dce72800fff7b2fd02204042d6e74046e8
:100998008870e3e7d0450020f0b583b00500fff785
:1009a80091fd012829d164242800fff70ffd0023b9
:1009b8006c43234e0193341901a92000636c9847b6
:1009c80001281ad1276b237ffa78511e8b4217d141
:1009d8002800fff7c3fd237907009d4209d0642052
:1009e800002368433018026b03779370380003b014
:1009f800f0bd2800fff77afdf1e701277f42f5e710
:100a08000133dbb22377994218d09a4204d8642381
:100a180000226b43f3181a772800fff7a7fc64201d
:100a28006843301803799d4202d002277f42dde7f0
:100a380002272800fff75afd7f42d7e7b870e4e79e
:100a4800d045002010b504000020002c00d010bdb7
:100a5800044b586b4468587a13000a00210000f0d0
:100a68002ffbf4e7d045002010b504000020002c2f
:100a780000d010bd0248407a00f022fbf9e7c046da
:100a8800d0450020002070470020704700207047a4
:100a980070b564246043084c0d002418237a0020a4
:100aa800012b00d070bd607a00f0a4fc636b288035
:100ab8005b8801206b80f5e7d045002010b56424e1
:100ac8004443064b1b191c7a0023012c01d0180043
:100ad80010bd00f025fc0123f9e7c046d0450020f1
:100ae800002804dc64235843024bc0587047002098
:100af800fce7c046d0450020642343430348c018a0
:100b0800036b1a88d87850437047c046d0450020f8
:100b18006423434330b50848c018036b1a88d87853
:100b28005043002807d05c6800238200cd58e55068
:100b380004339342fad130bdd045002064234343a7
:100b48000248c018036b58687047c046d04500205b
:100b5800642343430248c018036bd8787047c046e3
:100b6800d04500206423434330b50848c018036bc0
:100b78001a88d8785043002807d05c680023820080
:100b8800e558cd5004339342fad130bdd04500200a
:100b980064234343074ac000d3181218906e1a6999
:100ba800196b9446c978db88013948436044584337
:100bb8007047c046d0450020642343430148c0180d
:100bc80000697047d0450020642343430248c01899
:100bd800836a58687047c046d0450020f0b5de46a5
:100be80057464e464546e0b585b00393214b0292e1
:100bf800984664230022434343449b6a92460192e9
:100c08005a6881468b46002a2cdd5a46002a23dd85
:100c180052461701019a02995500039a0c0094460e
:100c28000a005a446544160004e064234a465343c4
:100c380043449b6a18682100c01903f0e1fa0134a3
:100c480028800235b442f0d1019b4a465b440193a7
:100c58006423534343449b6a012294465a68e244fe
:100c68005245d2dc05b03cbc90469946a246ab46fc
:100c7800f0bdc046d0450020642343430748084ad6
:100c8800c018c36810b5934206dc0133c360c36c57
:100c980098470004000c10bd0248fce7d04500202e
:100ca800a0860100feff0000642343430148c018ea
:100cb800806b7047d0450020642343430148c01827
:100cc80040697047d045002064234343064ac0006a
:100cd800d318196b1218c978906e013948435a69ac
:100ce800121ad88850437047d045002064234343e4
:100cf8000248c018503000787047c046d0450020e0
:100d0800642343430a4830b5c018030050331b78a6
:100d1800002b0cd0436b5c88002c08d000230022e9
:100d2800406dc5580132cd500433a242f9db30bdc5
:100d3800d0450020642343430a4830b5c018030057
:100d480050331b78002b0cd0436b5c88002c08d0e8
:100d580000230022806dc5580132cd500433a242d1
:100d6800f9db30bdd0450020642343430548c01853
:100d7800030050331b78002b01d0c06d7047024828
:100d8800fce7c046d0450020000080bf64234343f1
:100d98000548c018030050331b78002b01d0006ea3
:0c0da80070470020fce7c046d04500204a
:020000040000fa
:100db4007047c046f0b54746ce460b7880b590469e
:100dc4001a4a9c46430018181368c0001b185b8815
:100dd400002b20d000260024154b99461b685f8801
:100de4001d89bd420dd9b44519d97500ad196d00e1
:100df40045442f809f8801366f80df88f6b2af802c
:100e04000e70156801342d186d88e4b2db68a542b4
:100e1400e5d84a4613600cbc90469946f0bd62463c
:100e24000a704a46db681360f5e7c04624140020c4
:100e3400f849002030b50c78002c0fd00021084d63
:100e44002b68588801311080988889b25080d888de
:100e5400db6890800632a142f3d32b6030bdc046dc
:100e6400f8490020f0b50123454680464e46de464b
:100e7400574699464346e0b5944683b0002b49d083
:100e84000023424600269b46019301239a460025ef
:100e94001300d3440135db68002901d043455bd0fe
:100ea400002b01d04d45f5d14f46002d1bd0002f0e
:100eb40042d0002b40d050885c88001b00283bddca
:100ec400d868013f1c00002902d00023804500d0cf
:100ed4000300002e3bd0f4606046002800d0266159
:100ee4002600002de3d1002f33d0002be8d10029b8
:100ef40016d06346019af260002b00d016615b465f
:100f0400012b11dd4b465b009946019b98464346f5
:100f1400002bb5d10023002601939b460029e8d17c
:100f24005b46f160012beddc019803b03cbc9046bc
:100f34009946a246ab46f0bdd068013d1400002995
:100f440002d000228045c4d00200002ec3d10194f7
:100f5400c2e71a1e99d1cae70023a5e77047c04625
:100f64000368002b0cd000290ad0ca688b4208d031
:100f74000b69002a01d013610b69002b00d0da60e1
:100f840070470260ca680b69002af4d1f5e7c046cd
:100f940040884b88c01a704710b5002802d0fff76c
:100fa40061ff10bd0020fce7002310b50c4c80b29b
:100fb400221d118881420cd001331432042bf8d144
:100fc4002068002803d001220121fff74bff206095
:100fd40010bd9a00d318201d9b00c018f3e7c0462b
:100fe400f8490020f0b5c6460027184b00b51a682a
:100ff40043001b18db00d3185e88154c83b2984657
:10100400251dbe4213dd791c8a00bb005218db1972
:1010140092009b00e318a818186140469880002f9e
:1010240002d0283aaa185a610f00be42ebdc4346ac
:10103400013fa380bb00df19201dbf00e319c719be
:1010440067611861206004bc9046f0bd2414002040
:10105400f8490020034b044a186054230020d1545b
:101064007047c04624140020f8490020034b044a6a
:10107400186054230020d1547047c0462414002023
:10108400f8490020542310b50c4a0400d15c00290f
:1010940011d00b4b1b681a7882420cd018330020f5
:1010a40005e018331a00183a1278a24204d001302d
:1010b400c0b28842f5d1002010bdc046f8490020d6
:1010c40024140020f0b54746ce469c46542380b5f0
:1010d400234cc0b2e75c234b1b68002f10d01c7854
:1010e40084420dd01d000024183505e018352e006b
:1010f400183e3678864227d00134e4b2bc42f5d19a
:101104005f88d888b84227d99e8838b28046002e96
:101114000bd04500d868454481460020ed004d447d
:101124000c5c2c540130b042fadb1869414680460d
:101134006046890041440880012001374a805f806d
:101144000cbc90469946f0bd60000419e4001b19dc
:101154005f88d888b842d7d801204042f0e7c0461b
:10116400f849002024140020f8b5ce4647465423fd
:1011740080b53b4ac0b2d45c3a4b1d68002c10d0f9
:101184002b7883420dd02a000023183205e0183250
:10119400110018390978814258d00133dbb2a342d7
:1011a400f5d16b88002b4dd00023002600249846ef
:1011b4002d4f04e06b8801340636a3422cdd6b69a5
:1011c40021009a5f380007f0e3fe6b699b19002148
:1011d4005a5e002aeeda2a7a9446002a3bd000218d
:1011e40001220233585c0131404501d98046cab21c
:1011f4006145f7db93b2994638002100143007f0bb
:10120400c7fe2a69a30094464a4663445a806b8801
:1012140001340636a342d2dc002b13d000206969c6
:101224002c7a5d00ed186d008a1c6d180023002ccb
:1012340003d0d0540133a342fbdb088006310632cd
:101244008d42f3d10cbc90469946f8bd5a00d31890
:10125400db00ed18a5e7012301229946cce7c0463f
:10126400f84900202414002044740000f0b5d64648
:101274004f4646465423c0b5274ac0b2d55c274bd7
:101284001c68002d10d0237883420dd02200002347
:10129400183205e01832110018390978814235d026
:1012a4000133dbb2ab42f5d16388002b29d01c4b50
:1012b4000026994634234b4400279a466369390033
:1012c4009a5f504607f064fe4c21237a4944002279
:1012d4008846002b0cd06369551c9b199b189a787f
:1012e4002900404607f054fe237a2a009d42f2db8f
:1012f4004846483007f04cfe638801370636bb4247
:10130400dcdc1cbc90469946a246f0bd5a00d318ba
:10131400db00e418c8e7c046f84900202414002084
:10132400447400005423f0b5154cc0b2e65c154b70
:101334001f68002e10d03b7883420dd03c00002360
:10134400183405e018342500183d2d78854212d054
:101354000133dbb2b342f5d13b6988009c4660445b
:1013640043885380038813804b005b18f968db00c3
:10137400cb185360f0bd5800c318db00ff18ebe72f
:10138400f849002024140020542370b5184dc0b22d
:10139400ec5c184b1e68002c10d0337883420dd0bf
:1013a40032000023183205e0183211001839097888
:1013b400814216d00133dbb29c42f5d100200022d9
:1013c4002b00728004c32a000125002454326d428c
:1013d4001988814201d11d809c8014339342f7d136
:1013e40070bd5a0098b2d318db00f618e7e7c04680
:1013f400f849002024140020542330b50f4ac0b209
:10140400d45c0f4b1d68002c10d02b7883420dd078
:101414002a000023183205e018321100183909781f
:10142400814205d00133dbb2a342f5d1688830bdd7
:101434005a00d318db00ed18f8e7c046f84900203d
:1014440024140020f0b5de464e4657464546542344
:10145400e0b5614e8b46f15c87b00400039200292d
:1014640000d1b4e05d4f3b681a7882420dd0183346
:10147400002006e018331a00183a1278a24200d16c
:10148400a0e00130c0b28842f4d100230020984685
:10149400fff7a8fd0023039a306013703b684344b0
:1014a4001d005b88002b59d04d4b00249a461be04d
:1014b400012939d00022022958d09a420ad2484a36
:1014c4008388924500d178e09a4503d002229a4657
:1014d40003990a703b6814304344306001341d00a2
:1014e4005b88a4b2a34239d92a69a3009446634411
:1014f4005a881b8882800022944600220381c4807b
:101504004280e97a0029d3d16000ea680019c0005a
:101514001018ab8805aa594607f046fa059b3068af
:101524009ab242800389c8e7624602abda72eb687a
:1015340060009c460019ab8802a9c0006044009377
:101544008c4632000b2358326344594606f050fe51
:1015540002ab3068da7a03894280aee7002007b034
:101564003cbc90469946a246ab46f0bd02aa9146c1
:101574000b2362464b441a706b7aa888994619006b
:1015840005f0a6fc6100eb680919c90059184b461f
:10159400020000930300584607f0c8fe3b6843442a
:1015a400597a988805f094fc010007f0c1fe020006
:1015b400306892b2428003897fe7012203999a46f8
:1015c4000a7087e743001b18db00984660e7002396
:1015d40000209846014f5be7f849002024140020be
:1015e400ffff00005423f0b5174dc0b2ee5c174b5b
:1015f4001c68002e10d0237883420dd022000023d3
:10160400183205e01832110018390978814216d0d1
:101614000133dbb2b342f5d16688002e0ed000222e
:101624002b6859881889884203d9d888276980008b
:10163400c1530132db68b242f3db2b60f0bd5a00c8
:10164400d318db00e418e7e7f8490020241400204d
:10165400f8b54746ce469846542380b5184d0e003b
:10166400e95c1700002911d0164b00241b681a7876
:101674001833824206d109e018331a00183a127856
:10168400824204d00134e4b28c42f5d1002420001b
:10169400fff78afc81460c4bb6002b670b4bae1947
:1016a4006b670b4b4246ab670a4b3900eb67336ff2
:1016b400200098474b462b600cbc90469946f8bdd9
:1016c400f849002024140020b90d0000390e000050
:1016d400b50d0000610f0000f0b54746ce4680b559
:1016e40085b06b46dd1d00239046464a2b7054336b
:1016f4000600d05c444b1f68002810d03b78b342ee
:101704000dd03b000024183305e018331a00183ab2
:101714001278b24250d00134e4b2a042f5d1002490
:1017240006236b44994601234a46496813703000e6
:101734002a00fff787fe2b785a1e012a41d9002b75
:101744000fd002ab5d88314b9d4233d0280007f0a7
:101754003efc43465860280005b00cbc90469946b0
:10176400f0bdb97a01292dd00029ead1012302adb7
:101774005b4220006b80fff717fc43468146c68816
:101784009b6830001c6807f022fc4b462060988858
:1017940007f01dfc3b69b6006060f05a07f017fcc7
:1017a4004b46a060588807f012fce0606d88174b28
:1017b4009d42cbd10020cce763001b19db00ff184e
:1017c400aee7b97a02ac4a4630002300fff740ff87
:1017d400a388994643469b6848461e6807f0f7fb72
:1017e40030606588280007f0f2fb4b463a699b009d
:1017f4007060985a07f0ebfbb060208807f0e7fbb5
:10180400f060a0e7f849002024140020ffff000046
:10181400f0b5c64600b582b06b46dc1d0023170048
:10182400244a237054338c46d15c234b05001e6834
:10183400002910d0337883420dd0320000231832af
:1018440005e01832100018380078a8421fd0013380
:10185400dbb28b42f5d106236b4498460123424602
:101864006146137028002200fff7ecfd23785a1e0e
:10187400012a11d9002b06d1b37a012b13d0002be6
:1018840001d1013b7b8002b004bc9046f0bd5a00fc
:10189400d318db00f618dee7b17a3b004246280095
:1018a400fff7d6feefe73b00424601212800fff791
:1018b400cffee8e7f849002024140020f0b547469d
:1018c400ce469846542380b51400254a0500c7b275
:1018d400d05c244b83b089461e68002810d033782e
:1018e400bb420dd032000023183205e0183211003b
:1018f40018390978b9422cd00133dbb28342f5d1cf
:10190400002c02d0337aa3420ad21748583007f089
:101914003ffb0120404203b00cbc90469946f0bd09
:1019240000236a46494638005380fff771ff6b462f
:101934000e4a5b88934204d0a3420fd02800fff7dd
:1019440051fe4346220049462800fff7bbfb012015
:10195400e1e75a00d318db00f618d1e70020dae7f4
:10196400f84900202414002044740000ffff000004
:101974005423f0b51600274a83b0d75c264bc0b277
:101984001d68002f10d02b7883420dd02a0000232d
:10199400183205e018321400183c2478844229d007
:1019a4000133dbb2bb42f5d1002e02d02b7ab34215
:1019b40005d21a48583007f0ebfa03b0f0bd6a4676
:1019c400fff726ff6b465988b14218d09b885a000e
:1019d400d21850006a691218108801381080701edd
:1019e40012189078013090700c483200783007f06b
:1019f400cffae2e75a00d318db00ed18d4e76b46c0
:101a04009b885a00d21850006a6912181088013055
:101a14001080e4e7f84900202414002044740000f6
:020000040000fa
:101a2400ac4b00201c000000000000000c4c002007
:101a34000800000000000000384b00202c000000cb
:101a440000000000084b00203000000000000000ef
:101a5400d03700200004000000000000c84a002025
:101a64004000000000000000004c00200c000000ba
:101a740000000000144c00201000000000000000d2
:101a8400454c00200100000000000000494c0020eb
:101a940001000000000000002c4c002004000000a5
:101aa40000000000c84b00203800000000000000c7
:101ab400304c00200400000000000000514c0020c5
:101ac4000100000000000000584c0020010000004c
:101ad40000000000b0480020c80000000000000022
:101ae4007f4e0020010000000100000032000000d1
:101af400c84e0020010000000100000002000000a8
:101b0400594c00200100000000000000c823002000
:101b14000208000000000000204e00205f000000ca
:101b24000100000030313233343536373839414220
:101b3400434445464748494a4b4c4d4e4f505152f9
:101b4400535455565758595a6162636465666768b9
:101b5400696a6b6c6d6e6f70717273747576777879
:101b6400797a7e21402324255e2628295b5d7b7dae
:101b74005f5c7c3b3a2c2e6027223c3e2b2d2a2f87
:101b84003d3f2000664c00200200000001000000e0
:101b940001000000d03b0020000400000000000011
:101ba400344c002004000000000000005a4c0020c7
:101bb4000300000000000000b04700200001000006
:101bc400000000005d4c0020020000000000000046
:101bd400524c002002000000000000008c4b00204a
:101be4002000000000000000544c0020020000000f
:101bf4000000000028140020a00f000000000000d6
:101c0400564c002002000000000000005f4c002041
:101c14000300000000000000504c00200100000000
:101c240000000000d03f002000040000000000007d
:101c34004a4c00200200000000000000cc2b0020d1
:101c440000080000000000004c4c002004000000cc
:101c540000000000484c00200100000000000000cb
:101c6400624c00200100000000000000464c0020ef
:101c740002000000000000007849002080000000fd
:101c840000000000634c002003000000000000007e
:101c9400444c00200100000000000000c94e002058
:101ca400010000000100000001000000d0430020fa
:101cb4000002000000000000804e00202800000008
:101cc40001000000010000000004002000140020b6
:101cd4000014002043350e73bd444a5392ff0a3e5c
:101ce4008fd92ff40100000000000020d04500200f
:101cf400e0010000000000000000002010140000bb
:101d040000000000684c00203001000001000000c9
:101d1400101400200a000000644b00200a00000098
:101d24000e00000000000000912407543a00000057
:101d340000000000d81167563c00000000000000bd
:101d44001c220954430000000000000001b81f5386
:101d54004500000000000000b90bb7524600000027
:101d640000000000cf05da52470000000000000028
:101d7400554b02534b00000000000000b4f606521d
:101d84004d00000000000000a092c7515000000068
:101d940000000000c2d4b95151000000000000004e
:101da4008cf0d951550000000000000031a23851d8
:101db40056000000000000003ae290515a00000072
:101dc400000000006625d050600000000000000004
:101dd400b6b897506200000000000000899937519e
:101de4006400000000000000b22a3a5067000000be
:101df400000000003f5cfd4e6c000000000000008d
:101e0400f5f5ef416e0000000000000035ffa84129
:101e14006f000000000000009588a04173000000de
:101e2400000000009ea06641760000000000000053
:101e34000414ab417700000000000000cb47b84118
:101e4400644b002028000000000000001014002053
:101e54001400000000000000f84900208000000089
:101e64000000000024140020040000000000000012
:101e7400984d0020880000000100000000000400cc
:101e84001800040003010100c04d0020b04d0020e3
:101e94000000000096000200960002009600010077
:101ea400960002002c021a22060a0a3be7a7e284e3
:101eb400ff6704ff72f8000c1c002f3000000102c1
:101ec4002304040b6801043201ab871c10f5525043
:101ed4006e58394b01000000010101090304030895
:101ee4000d0e60040afc2c494d23265f00000000ff
:101ef40000000000000000000000000000000000de
:101f040000000000ca2b00200200000000000000b6
:101f1400cc3300200404000000000000384c0020f2
:101f24000800000000000000784a00205000000073
:101f340000000000404c00200400000000000000ed
:101f4400a84e002020000000010000000100000055
:101f5400030000000000000000000000000000007a
:101f64000000000000000000244c0020244c00204d
:101f74000800000000000000000000000000000055
:020000040000fa
:101f840000f84622128a7c000402fe0000000004cd
:101f94008242221c000084121212ec00406050485d
:101fa40044fe40009e121212e20000f824121212a3
:101fb400e000020282621a0600ec121212ec000027
:101fc4009c222222927c00e05c424e70c000fe22e1
:101fd4002232ec000078840202840000fe02020235
:101fe400847800fe121212120000fe121212120065
:101ff4007884022222e40000fe101010fe00000289
:1020040002fe02020000020202fe020000fe10189c
:1020140024c20000fe0000000000fe041820180482
:10202400fe00fe0438c0fe007884020202847800b8
:10203400fe2222221c00f8040242827c0000fe22be
:1020440022629c00008c121222c400000202fe02d2
:10205400020000fe00000000fe003ee000e0380642
:1020640000fe807080fe0002864830488602020c22
:1020740010e0100c0200824222120a0600c0282836
:1020840028f00000ff080808f00000f00808089095
:102094000000f0080888ff0000f048484848300075
:1020a4000808fe090901007088888888f000ff107c
:1020b4000808f000000808fb00000000080808fbfe
:1020c400000000ff2050980800000101ff000000fc
:1020d400f81008f81008f800f8080808f00000f0f4
:1020e40008080808f000f8080808f00000f00808dc
:1020f40008f80000f81008081800009028284890f4
:10210400000808fe0808080000f8000080f8000035
:1021140038c000c0380000f8807080f8000818a0ab
:1021240040a018080078800000f8000008886818ab
:10213400080060103060403000000000bf800000e4
:10214400f00ef309f903fc48e85e48e85e48000c29
:10215400927f22c00006896610cc22c100180402b6
:10216400041800c02e11798ee0000000f80601006a
:102174000000000106f800000000ff01010000005b
:10218400000101ff0000002020de01010000010128
:10219400de2020000000000000000000010e30c01e
:1021a4000000000000ff00000000000098980000fc
:1021b40000000098980000000000808000000000eb
:1021c40080800000000001030200000000000007fe
:1021d40007000000070700070700002070d88804e4
:1021e40000000488d8702000202020fc202020003b
:1021f400002020202000000a041f040a000000c060
:10220400300e0100005050505050000002a1b11196
:102214000e000000000000000000000101010100a8
:1022240000010101010100000101010101000000a0
:102234000101010000000000000001000000010194
:102244000100000000010101010000000001000084
:102254000000000101010000000001010100000074
:102264000100000000010001010101000000000064
:102274000101000000010101010000000101010150
:102284000100000100000000000000010101000045
:102294000001000000010000010101010100000132
:1022a4000101000000000100000001000001010123
:1022b4000101000100000000000100010000000114
:1022c4000000000101010000000100000000000006
:1022d40001010100010000010000000001000001f3
:1022e40001010000000000010000000000010101e4
:1022f40001000000000100000000010000000100d6
:1023040001010000000101000000010000000001c3
:1023140001010101010000010101010000010101ad
:1023240001000000000101010000000001010001a2
:102334000000000101010101000000010000000093
:10234400000808080807000100000001000001015e
:102354000101010000080808070000000100000056
:102364000100000101010101000100000100000160
:102374000001000000010000000101010100000f44
:10238400010101000000000101010f000001000033
:102394000000000000010101000000000001010133
:1023a4000000000101000100000000010000000025
:1023b4000001000001000101000000010100080803
:1023c40005030000000101010101000000000000fc
:1023d40000000000000101000003040909090100d4
:1023e40000010000010000000107010100000100dc
:1023f40000000001000000000000000000010101d5
:1024040000010100000106080000000008060100a8
:102414000000000f08080000000008080f0000007a
:102424000000070808000008080700000008080862
:1024340008080808000000000102000000000f0066
:102444000000000004070300000000000101000078
:102454000000040703000000000101000000000068
:102464000000000000000000000000000000000068
:102474000000000000000000010000010000000056
:102484000000000001000000000000000000000047
:102494000000000000000002010000000000000035
:1024a4000000000000000101000000000000000026
:0424b4000000c0461e
:020000040000fa
:1024b800f0b59bb013930b6815900a938b680d9138
:1024c8000b930b694d681893cb68029313680893b4
:1024d80053680898069300220023069906f046f9e7
:1024e80000280dd10a9b5b073bd408200a9b0340b8
:1024f80009930b9b0393099b002b0fd0202306e025
:10250800802212069446069b634406932d23029a62
:1025180013700b9b013b039301230993069b0899b6
:102528005b005b08924a00291dd193421bd1029996
:10253800139b8c46099a413b624410008d49192b24
:1025480000d98d4906f084ff029806f013fe0a9b15
:102558000200009302990b9b159805f03df91bb0fa
:10256800f0bd2b23d3e7934203d80ed1089b002b51
:102578000bd00299139b8c46099a413b6244100088
:102588007e49192bded97e49dce700220023089812
:10259800069906f02dfb00267a4f002400283ed12c
:1025a800040002e00134049e059f0022764b3000af
:1025b800390003f01bf8089a069b0490059106f071
:1025c800b6f80028eed00023049320e06f4b9c421d
:1025d80014da049b002b11d100226d4b0898069940
:1025e80003f004f86a4b0890069130003900002285
:1025f80002f0fcff012306000f00049330003900ad
:102608000022614b04f092fa06000f00013c3200f0
:102618003b000898069906f0a9f80028d6d1139827
:1026280006f0bafec3b20c93002d00da94e10493cd
:10263800672b00d0b2e0002d00d189e1231d02db19
:10264800ac4200daa6e06523b6e0002200230e9231
:102658000f9303e106960797049b2600652b00d08d
:102668001ae1002618e1129b002b0bd1002e09da83
:10267800029a14992e335354039b0137013b039359
:1026880001231293ea193b009446302102e0029a92
:10269800d15401339c45fad1039aeb19551b029a80
:1026a80030305f1cd0546b1e0393002521e00d9b36
:1026b80014971b691093053bbb4200d8f5e0069ab6
:1026c800079b08980e9904f031fa04f04bfb109020
:1026d800119106f09bf9092800dd092010230a9ab8
:1026e80013400343bfd10c9b672bbcd1002ec9da22
:1026f80001358020000684460e99089a61440b0033
:102708001098119900920193069a079b06f03cfed7
:1027180080231b06cb1808900e9306980799002271
:10272800194b04f003fa013e06900791b9e00a9ba1
:10273800db0600d4bde02e23029ad3550137b8e05a
:1027480020000a2104f00cfc029b3031013d595550
:1027580020000a2104f0bafb039b0400013b039309
:10276800b7e0029b03991a5c5b181a540138e0e041
:102778000000f07f709300007493000078930000cd
:102788007c9300000000f03f00002440d4feffffcf
:1027980000005043002c0eda66230493049b013595
:1027a800662b0ad1002c02da002600246d4f0c9b00
:1027b800672b00d02d1966230493089b0e960f975c
:1027c8001293069b1093002314930e9a0f9b129852
:1027d800109904f0abf904f0c5fa1690179106f0b9
:1027e80015f919908020000684461099129a6144c0
:1027f8000b0016981799009201930e9a0f9b06f0fa
:10280800c3fd80231b06cb18129010930e980f99c6
:10281800554b002204f08af9149b0e900f91013356
:1028280014939d42d1d10022504b02f0dffe0e904e
:102838000f9102000b001298109905f097ff0028dd
:1028480000d002e70e9a0f9b1298109906f0d0f963
:10285800002803d0199bdb0700d4f6e60e9a0f9bdd
:102868000898069902f0acf8002208900e913e4ba9
:102878003000390002f0bafe089a0e9b06900791c4
:1028880005f014fe002800d1e4e6049b0134662b11
:1028980000d0e1e626000135731b0025099f169339
:1028a8001295169b9e4200d001e7129b002b00d187
:1028b8003de70026029bdb1906931e70049b652bdf
:1028c8002ad1189b5d1e029b5e55b44201da644210
:1028d8000136002c00d033e7189beb1a0333002b8a
:1028e80000dd2de76a1e2d23002e00d1023b029940
:1028f800023d8b54139b413b192b01d8452304936c
:10290800029b5919049b0b70039b023b0393af4234
:1029180002da069806f09cfd03230a9a1340022b5c
:1029280000d011e6039b002b00dc0de6029806f0b0
:1029380021fc099b834200dc13e7029a302194466c
:1029480063441800039a06f0adfc00230b93fbe5e3
:10295800012573e6062571e60c9b672bfad00493d4
:1029680006251be70000f03f00002440000014404b
:020000040000fa
:10297800f0b599b014930b68566809934b68139097
:102988000d938b68cf680c930b6931001193136812
:10299800002208930898002305f0e8fe00280cd1cf
:1029a800099b5b0724d40820099b0c9d03400593d1
:1029b8000cd02023013d3b7006e080231b06f6184f
:1029c8002d233b700c9b5d1e01230593089a730011
:1029d8005b08002a0ed1ac4a93420bd1149b059a8e
:1029e800413bb818a94caa49192b12d9210010e06b
:1029f8002b23e6e7a44a934203d819d1089b002b5e
:102a080016d0149b059a413bb818a24ca249192b21
:102a1800ecd806f01dfd200006f0acfb099b020077
:102a2800009339000c9b139804f0d6fe19b0f0bd42
:102a3800059b05995a1c30237b54149b413b0e93ec
:102a48000e995823192900d920330599bb5402310e
:102a5800ab1e05910793002200230898310006f069
:102a6800c7f8002800d165e100238c4c0693029337
:102a780003940d9b1093002b01da18231093029beb
:102a8800039c0a930b9434000023089d129328009a
:102a98000a9a0b9b210004f049f804f063f90a9a9a
:102aa8000b9b1690179102f0a1fd02000b00280065
:102ab800210006f049fc7a4b05000c000a980b9996
:102ac800002202f093fd129b0a900b9101330f93a1
:102ad8000d9b002b07da002200232800210006f0b6
:102ae80087f8002806d1109b129a934200dd27e14f
:102af80001330f9300220a980b996a4b02f076fd76
:102b08000a900b9102000b002800210005f02efe10
:102b1800002800d016e10a9a0b9b2800210006f035
:102b280067f8002806d01698179905f06fffc307b5
:102b380000d407e10a9a0b9b0898310001f040ff86
:102b4800129149000a904908002803d14e4b994236
:102b580000d143e70025059c10950895119b260098
:102b6800053ba34230d9029a039b0a98129903f0b5
:102b7800ddff04f0f7f81490159105f047ff031ee8
:102b880000d0e4e0089a002a00d1e0e00135029a7a
:102b9800039b1498159902f029fd02000b000a986e
:102ba800129906f0d1fb00220a9012913c4b029830
:102bb800039902f01bfd089b0290039101330893cf
:102bc800089a0f9b9342c9d1109b002b1ad1002d54
:102bd80000d100e10d9b002b00dcfce0099bdb072a
:102be80000d5f8e02e2230213b191a702a19ba189c
:102bf800597001339a42fbd12c19ed43079b0134dc
:102c0800eb18079300263b191e700293119b5d1e5b
:102c1800069b7e55b34202da5b4206930136069b59
:102c2800002b00d0c0e0119beb1a013300d1bbe0b0
:102c38006a1e2d23002e00d1023bbb540e9a023d82
:102c48005023192a00d9203379190b70ac4202dac3
:102c5800029806f0fdfb0323099a1340022b11d1b9
:102c6800079b9c1e002c0ddd380006f083fa059b9f
:102c7800984200dba8e0f8182200302106f012fb89
:102c880000230c933800c7e60000f07f649300002f
:102c9800609300006c930000689300000000f03f10
:102ca8000000b03f00002040069b029403950133ca
:102cb8000693029a039b1000190001f081fe04009c
:102cc8000d0002000b000898310005f04ffd0028a8
:102cd800ead0029a039b0898310005f047fd0028c6
:102ce80000d1c6e60298039900223f4b02f07efc11
:102cf8000022002305f07cff00280fd002980399da
:102d080000223a4b02f072fc002202900391374bea
:102d18000898310002f06afc0e000890324b0298c5
:102d28000399002202f062fc069b02900391013b8a
:102d38000693cee700232e4c069002930394b8e73f
:102d48000f9ba3e6002300240a930b94f2e6109a43
:102d5800002a0ad1089a002a07d02e22ba55079ac3
:102d68000134013a0792012210922e19302201e013
:102d78003a550134b442fbd11800079a5730551b15
:102d8800092b01dc303318000e9b192b06d82023a1
:102d98000343613b192b01d806f005fb6b1e741c1d
:102da800b85507930025f2e606980a2104f0d8f8ea
:102db800013d3031795506980a2104f087f8079bc0
:102dc8000690013b07932ae7079b3a5c023bfb18f6
:102dd8001a5401384be7099bdb0600d412e72e236f
:102de8003b5501340ee7c0460000e03f0000504369
:042df8000000f03fa8
:020000040000fa
:102dfc00f0b5ce46474680b5060083b008000d00fe
:102e0c00fdf77cf92c4f80463900300006f0ecf9c8
:102e1c0004002800fdf768f901a901282dd028002d
:102e2c00fdf77ef901235b4243449946002b10ddec
:102e3c000025019aab00985805f014fb0b003900e3
:102e4c0002000c31301906f0cff9013524184d452c
:102e5c00efdb1a4b019a43449b00985805f002fb98
:102e6c000b00390002001031301906f0bdf90019c1
:102e7c0003b00cbc90469946f0bd2800fdf750f904
:102e8c0001235b4243449946002b0add0025019b3c
:102e9c0030195a5d391d06f0a7f9013524184d4536
:102eac00f5db3900019b08314344013b1a7830199a
:102ebc0006f09af90019dbe7e4470000ffffff3f3b
:102ecc00f0b5c64600b50e00fdf7ecfe80461c4f73
:102edc003000390006f088f943469a6805005368bb
:102eec00002b26dd0024012b14d01368a200d0582f
:102efc0005f0b8fa0b00390002000c31701906f01d
:102f0c0073f943469a68013453682d18013ba34268
:102f1c00ebdca4001368185905f0a4fa0b00390077
:102f2c0002001031701906f05ff9401904bc90468c
:102f3c00f0bd39003018143106f056f92818f5e7b1
:102f4c00e4470000f8b5de4657464e464546e0b528
:102f5c00424f0d0039009a460aab1b780600183117
:102f6c00934602002800994606f03ef90400300012
:102f7c00fdf798fe0378012b55d02a199046022ba9
:102f8c005ed05b46002b12d15346002b23d14b460f
:102f9c00002b34d1324f390040464c3106f024f925
:102fac0020183cbc90469946a246ab46f8bd300072
:102fbc00fdf788fe83463000fdf7e8fd390003007d
:102fcc00543140465a4606f00ff924182b199846ee
:102fdc005346002bdbd03000fdf790f8390002008f
:102fec007c31404606f000f9241828193100fff70f
:102ffc00fffe24182b1998464b46002bcad03000e4
:10300c00fdf750fe164f836839005a682831404648
:10301c0006f0eaf8241829193000fff751ffa846ea
:10302c002418a044b7e7406805f060fb39000200a3
:10303c002c31281906f0d8f824182b199846a0e73b
:10304c00406805f00ffa0b0039000200443140468d
:10305c0006f0caf824182b19984692e7e4470000aa
:10306c006448000010b50248503005f08dff10bdcb
:10307c006448000010b5054c2000543005f084ff66
:10308c002000503005f080ff10bdc04664480000a1
:10309c00f0b557464e46de464546e0b583b00400d3
:1030ac000e001700fdf720fe00284cd0294b220003
:1030bc001900300024319a4606f096f805002000dd
:1030cc00fdf71cf8390083462000fdf731fe200087
:1030dc00fdf75afe514601904831701906f084f8fc
:1030ec0001235b425b442d189846002b0ddd1a4bd7
:1030fc0000249946a300fa584b467019191d06f086
:10310c0073f801342d184445f4db5146134b5c31f4
:10311c005b449b00da59701906f066f85146451964
:10312c0064317019019a06f05ff851462d187c3104
:10313c00701906f059f8281803b03cbc9046994613
:10314c00a246ab46f0bd064922007831300006f0ad
:10315c004bf8f1e7e4480000e4470000ffffff3fb5
:10316c0064480000f8b54e464546de465746e0b585
:10317c0004000e009046fdf7b7fd002855d02e4fe9
:10318c0022003900300006f02ff805002000fcf773
:10319c00b5ff414682462000fdf7b0fd2000fdf74b
:1031ac00e1fd390083462431701906f01df8012326
:1031bc005b4253442d189946002b10dd00244246e7
:1031cc00a300d05805f04ef90b003900020038313d
:1031dc00701906f009f801342d184c45efdb424606
:1031ec00164b53449b00985805f03cf90b003900e2
:1031fc0002004031701905f0f7ff4519584605f0eb
:10320c0031f90b00390002004831701905f0ecff60
:10321c000b492d1870197c3105f0e6ff28183cbcc1
:10322c0090469946a246ab46f8bd06492200783135
:10323c00300005f0d9fff2e764490000ffffff3fc3
:08324c00e448000064480000a2
:020000040000fa
:10325400000000000000000000000000000000006a
:10326400000000000000000000000000000000005a
:10327400000000000000000000000000000000004a
:103284000080c0c0e0f0f0f0f8f8f8fcfcfcfcfcb6
:10329400fcfcfcfcfcf8f8f8f0e0800000000814ea
:1032a4000800000000000000000000000000000012
:1032b400000000000000000000000000000000000a
:1032c40000000000000000000000000000000000fa
:1032d40000000000000000000000000000000000ea
:1032e40000000000000000000000000000000000da
:1032f400000000000000000000000000c0f0f8fe24
:10330400ffffff7f3f1f07030101030f1f7fffff25
:10331400ffff7f1f0f03030103070f3ffcf8e0804b
:103324000000000000000000000000000000000099
:103334000000000000000000000000000000000089
:103344000000000000000000000000000000000079
:103354000000000000000000000000000000000069
:103364000000000000000000000000000000000059
:103374000000000000000000000000feffff3f1fef
:103384000f070f1f7cf0e080000000000000000326
:10339400071f7ef8e0c00000000000000001070fd6
:1033a4003ffcf8e0c0000000000000000000000046
:1033b4000000000000000000000000000000000009
:1033c40000000000000000000000000000000000f9
:1033d40000000000000000000000000000000000e9
:1033e40000000000000000000000000000000000d9
:1033f40000000000000000000000000301000000c5
:1034040000000080c0e0fffffffcf8e08000000047
:1034140000000000c3e7fffef8f0c0000000000059
:103424000000010707000000000000000000000089
:103434000000000000000000000000000000000088
:103444000000000000000000000000000000000078
:103454000000000000000000000000000000000068
:103464000000000000000000000000000000000058
:103474000000000000000000000000000000000048
:10348400000c1e3f7f7ffffffffffffffffffcf8e5
:10349400f8fcfeffffffffffffff7f7f3e180000e9
:1034a4000000000000000000000000000000000018
:1034b4000000000000000000000000000000000008
:1034c40000000000000000000000000000000000f8
:1034d40000000000000000c0f0f8f0f080000000e0
:1034e40000000080f0f0f8f0c000000000000000d0
:1034f40000000000000000000000000000000000c8
:1035040000000000000000000101010101030303a9
:10351400030303010101010000000000000000009a
:103524000000000000000000000000000000000097
:103534000000000000000000000000000000000087
:103544000000000000000000000000000000000077
:1035540000000000000080ffffff071ffffef0c017
:10356400c0f0feff3f07ffffff800000ffffff00ea
:1035740000fcfeff0f07070707070707060000ff09
:10358400ffff878787878787cffffe780000feffce
:10359400ff0f070707070ffffffe0000fcfeff0fea
:1035a40007070707070707060000ffffffe0e0e043
:1035b400e0e0e0ffffff0000ffffffff0000ffff70
:1035c400ff07070707078ffffefc0000000000004d
:1035d4000000000000003f3f3f0f000000071f1fd6
:1035e4001f1f07000000073f3f3f00003f3f3f0011
:1035f400000f1f3f3c383838383838381800003f3f
:103604003f3f030303030303073f3e3c00001f3f08
:103614003f3c383838383c3f3f1f00000f1f3f3cc9
:10362400383838383838381800003f3f3f01010136
:103634000101013f3f3f00003f3f3f3f00003f3f4c
:103644003f07070707070707030100000000000002
:020000040000fa
:10365400008040c020a060e0109050d030b070f0e6
:10366400088848c828a868e8189858d838b878f856
:10367400048444c424a464e4149454d434b474f486
:103684000c8c4ccc2cac6cec1c9c5cdc3cbc7cfcf6
:10369400028242c222a262e2129252d232b272f286
:1036a4000a8a4aca2aaa6aea1a9a5ada3aba7afaf6
:1036b400068646c626a666e6169656d636b676f626
:1036c4000e8e4ece2eae6eee1e9e5ede3ebe7efe96
:1036d400018141c121a161e1119151d131b171f156
:1036e400098949c929a969e9199959d939b979f9c6
:1036f400058545c525a565e5159555d535b575f5f6
:103704000d8d4dcd2dad6ded1d9d5ddd3dbd7dfd65
:10371400038343c323a363e3139353d333b373f3f5
:103724000b8b4bcb2bab6beb1b9b5bdb3bbb7bfb65
:10373400078747c727a767e7179757d737b777f795
:103744000f8f4fcf2faf6fef1f9f5fdf3fbf7fff05
:10375400000092012403b6044706d9076a09fb0a4c
:103764008b0c1b0eab0f3911c7125514e1156d17d5
:10377400f818821a0b1c931d191f9f202322a623bd
:103784002725a7262628a3291e2b982c102e862f02
:10379400fb306d32de334d35b93624388c39f23a8c
:1037a400563cb73d163f7340cd4125437a44cc4542
:1037b4001c476948b349fa4a3f4c804dbf4efa4f03
:1037c400335168529a53c954f4551d57425863599a
:1037d400815a9c5bb35cc65dd65ee25feb60f061d0
:1037e400f162ee63e764dd65ce66bc67a5688b694c
:1037f4006c6a4a6b236cf86cc96d956e5e6f2270af
:10380400e1709d7154720673b5735e740375a4758b
:103814004076d8766b77f977837808798979047a52
:103824007c7aee7a5c7bc47b297c887ce27c387d64
:10383400897dd57d1c7e5e7e9c7ed47e087f377f0d
:10384400617f867fa67fc17fd77fe87ff57ffc7f7e
:10385400ff7ffc7ff57fe87fd77fc17fa67f867fd0
:10386400617f377f087fd47e9c7e5e7e1c7ed57d03
:10387400897d387de27c887c297cc47b5c7bee7a04
:103884007c7a047a897908798378f9776b77d876a2
:103894004076a47503755e74b573067354729d7196
:1038a400e17022705e6f956ec96df86c236c4a6b83
:1038b4006c6a8b69a568bc67ce66dd65e764ee63f8
:1038c400f162f061eb60e25fd65ec65db35c9c5b67
:1038d400815a635942581d57f455c9549a53685232
:1038e4003351fa4fbf4e804d3f4cfa4ab3496948b1
:1038f4001c47cc457a442543cd417340163fb73d20
:10390400563cf23a8c392438b9364d35de336d32b3
:10391400fb30862f102e982c1e2ba3292628a72691
:103924002725a62323229f20191f931d0b1c821acf
:10393400f8186d17e1155514c7123911ab0f1b0e8a
:103944008b0cfb0a6a09d9074706b60424039201c3
:1039540000006efedcfc4afbb9f927f896f605f583
:1039640075f3e5f155f0c7ee39edabeb1fea93e8db
:1039740008e77ee5f5e36de2e7e061dfdddd5adcd3
:10398400d9da59d9dad75dd6e2d468d3f0d17ad06e
:1039940005cf93cd22ccb3ca47c9dcc774c60ec5c4
:1039a400aac349c2eac08dbf33bedbbc86bb34baee
:1039b400e4b897b74db606b5c1b380b241b106b00d
:1039c400cdae98ad66ac37ab0caae3a8bea79da656
:1039d4007fa564a44da33aa22aa11ea0159f109e00
:1039e4000f9d129c199b239a329944985b97759664
:1039f4009495b694dd93089337926b91a290de8fe1
:103a04001f8f638eac8dfa8c4b8ca28bfd8a5c8ae3
:103a1400c0892889958807887d87f8867786fc85fc
:103a240084851285a4843c84d78378831e83c882ca
:103a340077822b82e481a28164812c81f880c98001
:103a44009f807a805a803f80298018800b80048070
:020000040000fa
:103a5400f0b5c646884600b500291add0400050005
:103a640000278e008619381c02cd02f049f9071c84
:103a7400b542f8d1404605f0bbf9011c381c03f0ef
:103a84004dfc051c2068291c05f058fc01c4b442f7
:103a9400f8d104bc9046f0bdf0b54f464646d64634
:103aa4008046c0b5894600294fdd8b00434405009c
:103ab4009a46294c294f2e68391c301c05f055f8bc
:103ac400002800d0371c211c301c05f037f80028d2
:103ad40000d0341c0435aa45edd10021201c05f08a
:103ae40044f8002803d080231b069c46644400212c
:103af400381c05f03af800281cd1211c381c04f0ad
:103b0400bbff002822d1391c154803f007fc061c12
:103b14004b46002b09dd44469d0065192068311c85
:103b240003f0c7f801c4ac42f8d11cbc90469946d6
:103b3400a246f0bd80231b069c466744211c381c0a
:103b440004f09aff0028ded000e0044c211c044855
:103b540003f0e4fb061cdbe70000ffce0000ff4e91
:103b640000feff46f0b5d6464f464646cb0f5b18df
:103b74005b1098462b4bc0b59a4600229b5e81464b
:103b84000c008b4203d153469b78002b29d1012c86
:103b940022dd200005f02cf90025234e071c280007
:103ba40005f026f9214903f084f8391c03f0b6fb2b
:103bb40004f05cfc02f002fb00221d4b01f018fd36
:103bc40002000b0000201a4905f0c0fb04f0dcf8e9
:103bd400013501c64545e2db534652461c800123ac
:103be4009370012c19dd104b002500269a46013ce8
:103bf400a4004c4453465f594b46391c585903f0b2
:103c040058f84b4658512068391c03f052f80136d5
:103c140020600435043c4645ecdb1cbc90469946c8
:103c2400a246f0bdcc330020d0330020da0fc940c7
:103c34000000e03f70b5002913dd4d000400451974
:103c44000300002000269a5f023380189d42f9d1b8
:103c540003f03ef980b223881b1a23800234a54264
:103c6400f9d170bdf8b50400002919dd03004f0037
:103c74001a4e1b4dc11900201a5e954200dd150035
:103c8400964200da160002339942f4d1f317f01881
:103c94005840eb17ed185d40854202dc002e01d13f
:103ca400f8bd280005f0a4f8011c0e4803f036fb0b
:103cb400fe218905051c04f041ff0028f0d0e71916
:103cc4000023e05e05f094f8291c02f0f2ff04f0f2
:103cd40011fd20800234a742f2d1e1e70080ffff0a
:103ce400ff7f000000feff46f0b546468846d646f4
:103cf4004f46324bcc0f9a4600229b5e4444c0b5db
:103d0400050064108b4203d153469b78002b32d0bc
:103d14004346012b29dd404605f06af8002681461a
:103d2400274f300005f064f8264902f0c2ff4946e7
:103d340003f0f4fa04f09afb02f040fa0022224b5a
:103d440001f056fc02000b0000201f4905f0fefaaa
:103d540004f01af88d21c90502f0abff04f0cafc87
:103d6400013638800237a642dbdb534642461a80ce
:103d74000023524693704346012b19dd4146104bf4
:103d8400002000269c4601394900691863461b5ee1
:103d94002a5e01365a43013292132a520027ca5f1f
:103da4000230534301339b130b800239a642eddbef
:103db4001cbc90469946a246f0bdc046cc330020b8
:0c3dc400d0330020da0fc9400000e03fbf
:020000040000fa
:103dd0000023f0b506001500b1b0079103930799d1
:103de0000b78002b00d10ce101235b420c9310ab4c
:103df00000240e9380230b940d940f930b5d002be6
:103e000001d0252b2ad1002c06d02200300004f04e
:103e10000dfd079b1b190793079b1a78252a00d0d5
:103e2000e4e0013304930793022301219c46102709
:103e3000079803782b2b1ad025d8202b1ad0232ba8
:103e40001dd02a2b28d004f017fc0d90079b1a7860
:103e5000303a092a31d801330793f7e70134cde727
:103e60000b9b05930b4301300b930790e0e7042372
:103e70000b9a0fe00b9b0593059a08230ae00b9b16
:103e800005933b43efe72d2bead0302bd9d1624687
:103e90000b9b05931343e6e72b6801301a1d1b6843
:103ea00007902a600d93002b07da0b9a5b4205926c
:103eb000012205990d934a400b920b9bda0702d51c
:103ec000022293430b93079b1a782e2a0ed10022cd
:103ed000581c0c9207905a782a2a27d1023307934c
:103ee0002b681a1d1b682a6005930c9307a804f021
:103ef000abfd079b0700187805f052fa692800d13e
:103f000082e034dc632800d1dbe01adc252800d114
:103f1000e8e0612858d0049b012207930023524215
:103f20000c920b930d9300930232e5e004f0a4fb96
:103f30000c90079b1a78303a092ad7d80133079397
:103f4000f7e7642860d06728e5dc2a00390008a874
:103f500004f0c2fe002800d1afe0079b0ba95a1c59
:103f600007921b7808aa3000fef7a6fa3de07028f9
:103f700000d17de016dc6e2800d197e06f28cad111
:103f80002b000022390008a802f036fe002800d1dc
:103f900093e0079b08aa01330ba93000079303f0b5
:103fa000bdfd22e0752840d078284fd07328b2d1cb
:103fb000802f00d081e0079b2a6801330793131def
:103fc0002b601268002388e02a00390008a804f05a
:103fd00083fe002800d170e0079b0ba95a1c0792b2
:103fe0001b7808aa3000fef7c7fc2418039b1c1995
:103ff000a34200dc82e04f22414b1a6001235b4266
:104000000393039831b0f0bd2b000122390008a8ba
:1040100002f0f2fd002850d0079b08aa01330ba93b
:104020003000079302f0fcfedfe72b00002239008e
:1040300008a802f0e1fd00283fd0079b08aa013341
:104040000ba93000079303f08dffcee72b00002271
:10405000390008a802f0d0fd00282ed0079b5a1c7a
:1040600007921b7808aa0ba9300001f0e8febce714
:104070002b000022f02108a802f0befd00281cd071
:10408000079b099a01330793089b13430cd11d4fdb
:10409000380005f073f8390002000b9b00930d9b6c
:1040a000300003f09dfba0e77823dbe7039b39009a
:1040b0001a1908a82b0003f0d1fd079b01330793c1
:1040c00094e7802ff9d1079b013307932b681a1dc2
:1040d0001b682a6008aa137001230ba9300004f0a2
:1040e00015f882e7802fe8d10122079b013307935f
:1040f0000b9b049300930d9b0349d1e703946ee659
:0c4100003c4c00208094000086940000dd
:020000040000fa
:10410c00013880b24308184383080343180903435a
:10411c00180a1843013080b27047c0460023013a98
:10412c0003608280816083817047c0460023013a1e
:10413c00036082808160704770b5038845888488ed
:10414c00ed1a2d19254086680135002201e00388ff
:10415c0084889b1823405b009c5f53000132cc5237
:10416c00aa42f4d170bdc04670b5002b0edb8c1c7e
:10417c005b00856892b2e318848814406400645f25
:10418c0001320c80023192b28b42f5d170bdc04627
:10419c0010b50024013a92b2828012b2134004800e
:1041ac008160438002d101331a40028010bdc046a9
:1041bc00838882680b405b00d05e704703885b1875
:1041cc008188194083684900585e7047438882682b
:1041dc005b0099520423c25e43880188013313406b
:1041ec009bb243808b4202d1013313400380704752
:1041fc0083880b4081685b005a5270478388194052
:10420c0083684900585e7047002303608381837381
:10421c007047c04603885b1881881940018070473d
:10422c0043880088181a431e9841704701238373f2
:10423c007047c046002383737047c046807b70472d
:10424c008388194083684900ca5270478388194093
:10425c0083684900591800200b5e5a43044b9a425c
:10426c0000da1a00034b9a4200dd1a000a807047ec
:10427c000080ffffff7f000010b5838884680b402f
:10428c005b00e418002a06d00023e05e110002f067
:10429c001bfe208010bd014b2380fbe7ff7f00003d
:1042ac0070b583888468194049006418101c00217b
:1042bc00151c04f079fe002804d1281c04f016fa11
:1042cc00208070bd014b2380fbe7c046ff7f0000c0
:1042dc0070b583888468194049006418101c00214b
:1042ec00151c04f061fe002819d10023e05e04f0d7
:1042fc007bfd011c281c02f0d8fc0d49051c04f0a8
:10430c0019fc002802d00b48208070bdc721281c46
:10431c00090604f026fc002804d00748f4e7002323
:10432c002380f2e7281c04f0e1f900b2ece7c04668
:10433c0000feff46ff7f00000080ffff83881940ce
:10434c0083684900591800200b5e9a18044b9a4256
:10435c0000da1a00034b9a4200dd1a000a807047fb
:10436c000080ffffff7f000083884088401ac01840
:10437c00184001307047c0468288438800881b1a59
:08438c009b181a401000704755
:020000040000fa
:10439400f0b583b006006b460022da800d1e00dc07
:1043a400f1e0002406e06b1ea34212dc0134ac42af
:1043b40000dbe8e0335d552bf8d0032b10d0802bc5
:1043c40021d0022befd05bb2002b00dad2e0013413
:1043d400ece70134305d6d4b187003f0c1f9e5e78b
:1043e4006b1ea342e2dd0134305d694b1870674bec
:1043f4001b78c82bdad100b202f0daff654b1878cb
:1044040003f0c2fbd2e7eb1ea342cfdd631cf25cd8
:10441400022a01d01c00c9e733199a780334335daa
:10442400120213436a46d380584b1b78c82bbdd164
:104434000121594803f092ff002811d1574b1b78f2
:10444400002b32d1534b1b78012b6cd9032b00d892
:1044540084e06b4606330020185e03f037ff66e005
:1044640001214d4803f0acfa04f0beff0028fbd153
:10447400494b1b784b2b01d06b2bdfd10123474acf
:104484001370474a1370012201216b46981d04f0f2
:1044940025fb434b00221a700521032004f0d2fdb2
:1044a4000621404804f0cefdcce73d4b1b78002ba1
:1044b400e9d1062004f02afa002818d1052004f0d6
:1044c40025fa0028bed0384a138801331380344bb0
:1044d4001a7801216b46981d04f000fb01280ed0c8
:1044e400022816d00521032004f0acfdaae72e4fc4
:1044f40039882e4804f03ef800233b80dee72c4840
:1045040004f0d2fb2b4804f035f8244b00221a7037
:10451400e8e7294804f0c8fb284804f02bf81f4baf
:1045240000221a70dee76b4606330020185e244b27
:104534000027df5f7a00234bd0521421380002f0a9
:1045440011fd09b2002910d01d4f0023f85e01307f
:10455400fa21c90002f006fd398027e76b460633cd
:104564000020185e04f046f8e1e73900154801f030
:1045740095fde9e76b1ea34200dc17e73219537877
:104584000133e41812e703b0f0bdc0465a4c0020d2
:104594005e4c0020584c0020504c0020614c002000
:1045a400624c002088130000464c0020808c0000e0
:1045b400888c0000908c0000988c0000a08c000077
:0845c400564c002028140020d1
:020000040000fa
:1045cc00f0b557464546de464e46e0b5031d8bb06a
:1045dc009a4619000500089001228023764c08e0c9
:1045ec009b00eb1808681e680e601860a35c043111
:1045fc0001329342f4dcff2af8d101230493002307
:10460c000793534609930822079b0027d21a0133bc
:10461c000793049b06925a000292089a9146da007c
:10462c009b000593654b03929a4600239846059b85
:10463c007f423fb24b4442461e004d46bc4601925f
:10464c000223ec5e0023f15e57460220335e604687
:10465c005b10584352467b43674649104a437943a3
:10466c0001330131c913db135b180027e95f0130fb
:10467c000132c013491089b280b2d213471892b2da
:10468c0064109bb2bf1aa4b23780e71a1c19029ba4
:10469c0052189b460199039b59449b46101a7780ec
:1046ac00019128806c805e445d44ff29c8dd0123a4
:1046bc009c460333e0449c46049be14498450cd053
:1046cc004346069a3e4993401a0080325200525e8d
:1046dc005b0092463a4a9f5ea9e7029b0493079bb4
:1046ec00082b90d1ff2292009446099b354a9a469a
:1046fc00089b914663441f00802200235200984679
:10470c00314b4a4493461a00304e5346924608e0c9
:10471c0041464a46565e5a46525e9246022294469c
:10472c00e0440022985e0022bc5e40106410a4b2eb
:10473c0080b20519adb20222995e019502257a5f0d
:10474c0049105242521089b292b28d18adb2ac4699
:10475c0055468a1a12b2001b5446110055432a00c2
:10476c0000b27642444336b2714370430134019d2a
:10477c00e413013101320130a4b2c013c913d213b6
:10478c0089b212182819401a1880604692b22c1b54
:10479c0080180919588039806146521a7a8042462d
:1047ac000433043ffc2ab3d109200bb03cbc904627
:1047bc009946a246ab46f0bd55360000ff7f00007f
:1047cc0054370000583800006efefffffc7f0000dd
:0847dc008020c0007047c046b8
:020000040000fa
:1047e4005b00000025642c0025645d0025662c0018
:1047f40025665d005d0000007b224d6f64656c4e94
:10480400756d626572223a25640000002c22436ca7
:10481400617373696669636174696f6e223a2564b2
:10482400000000002c22526573756c74223a2566d0
:10483400000000002c225365676d656e745374612b
:104844007274223a25642c225365676d656e744c2c
:10485400656e677468223a25640000002c22466560
:104864006174757265566563746f724c656e6774b6
:1048740068223a25642c2022466561747572655657
:104884006563746f72223a002c224f7574707574cc
:1048940053697a65223a25642c224f7574707574b5
:1048a40054656e736f72223a000000007d000000b0
:1048b4000a0000007b224e756d4d6f64656c732297
:1048c4003a312c2230223a22544553545f315f52fc
:1048d400414e4b5f30227d004d6f64656c20256432
:1048e40020646f6573206e6f742068617665207034
:1048f400726f66696c696e6720656e61626c65646f
:104904000a0000007b224d6f64656c4e756d626514
:1049140072223a25642c2254797065223a22437912
:10492400636c6573220000002c2022466561747557
:1049340072654379636c6573223a5b0025645d2c70
:104944000000000022436c617373696669657243f9
:1049540079636c6573223a20256400007d0a0000a7
:104964007b224d6f64656c4e756d626572223a25cb
:10497400642c2254797065223a2254696d6573223d
:10498400000000002c20224665617475726554692c
:104994006d6573223a5b0000252e39662c000000f9
:1049a400252e39665d2c200022436c617373696681
:1049b40069657254696d65223a20252e39662c206a
:0449c4000000c046e9
:020000040000fa
:1049c800f0b40125ed070f005f405ad48b4200d1a7
:1049d800824205d950404240504059404b405940ce
:1049e8004e18760ddf187f0d3bd0741c640529d056
:1049f800f41b352c26d80e0ddb022b43db0ac9022b
:104a08002943c9121700202c1ed2e741e240574023
:104a1800e3415a40a340e3405a40002480185941da
:104a28000ad3b21c520521d0c207012f62411700d8
:104a38004008cb0718434908013636054208af41fc
:104a480060417141f0bc7047203c06d01f00e7412f
:104a5800e3405f400024012a6741c0186141ebd35d
:104a6800dfe7002eeed129400020ebe701363105c3
:104a78000020e7e7e742e5d10020c143090dc9045a
:104a8800e0e76b400e00871a9e4104d26e40c01bbf
:104a9800b141d21973414e18df18ac0ae642e9d287
:104aa800760d7f0d31d0f41b362ccbd8b4460e0dc5
:104ab800db022b43db0ac9022943c90a012c32d87d
:104ac80004d1d4075208df073a435b08ef0a64426f
:104ad800904199411ed0002239424dd124194041bc
:104ae80049410124394204d101340018494139426d
:104af800fad06246a24204d9361b013e360589190e
:104b0800a0e7f10ac90700209ce736429ad10020a5
:104b1800002197e70200224394d0b842ded2010078
:104b280020002024e3d1202c13dd203ce241170093
:104b3800a240e2405740e3415a40a340e3405a4074
:104b4800012fbf410137174300227c429841914110
:104b58000ce01700e741e2405740e3415a40a340c8
:104b6800e3405a407c429041994100220f0303d20e
:104b7800013e241940414941013e36054708ac41f0
:084b880050417141f0bc70477f
:020000040000fa
:104b9000f0b5c646060000b5002834d0072958dd18
:104ba00001230a009a43904617005b029a4237dcc1
:104bb000294c2378002b38d139003000fef7d4ff80
:104bc0006378002b3ed1340035007f00f71901cd0a
:104bd00003f092fd20800234bc42f8d11f4b98456f
:104be00015dd3000fff7f2fc1d4bf4181d4bf518d6
:104bf00000e01c000023e05e04f0fcf8043d686067
:104c0000a31ea642f5d1300004bc9046f0bd80231f
:104c1000db00f2180023238002349442fbd1e0e74a
:104c20000d4c1f002378002bc6d039003000fef752
:104c300011ff0023390030002370fef795ff6378e1
:104c4000002bc0d039003000fef728ff002363702e
:104c5000b9e70026d7e7c046ca2b0020ff010000b5
:104c6000fe030000fc0700000122044b10b55a703f
:104c700000221a70fff78cff10bdc046ca2b00201f
:104c8000012210b5024b5a701a70fff781ff10bd58
:104c9000ca2b0020f8b505000e0000283dd00729da
:104ca0003bdd80230c009b0099421cdc1c4f3b78b1
:104cb000002b1dd121002800fff718f87b78002b6e
:104cc00023d1184b9e4209dc8023db00ea18002325
:104cd000610069180b8002318a42fbd12800fff77e
:104ce00075fc2800f8bd0e4f1c003b78002be1d06e
:104cf00021002800fef7a0ff0023210028003b70c0
:104d0000fef7f4ff7b78002bdbd0802128008900a0
:104d1000fef7aaff00237b70d3e70020e2e7c0463e
:104d2000ca2b0020ff0100000122044b10b55a706d
:104d300000221a70fff7aeff10bdc046ca2b00203c
:104d4000012210b5024b5a701a70fff7a3ff10bd75
:044d5000ca2b00204a
:020000040000fa
:104d540070b56c4b9b7d002b19d06b4b9c6a694bd7
:104d64005b8b9b0714d5684b2022ff219954013299
:104d7400fd399954644a2023d35c5bb2013300d1da
:104d84008de0614a2023d35c062b00d1a0e070bde6
:104d94005c4b5b8bdb0707d55b4b2022ff219954cf
:104da4000132fd399954e5e7564b5b8b5b0707d518
:104db400554b2022ff2199540132fe399954d9e7e9
:104dc400514a2023d35c5bb2032b47d0042b11d070
:104dd400022bcfd11369002b05d0908880b200211b
:104de40003f0eaf8c6e7484b988880b2012103f043
:104df400e3f8bfe7444a936912699a420dd0424ae4
:104e04009268d05c3f4928228854591c3d4ad36992
:104e1400002bfcd13c4b9961ace73b4b5b69002b0d
:104e24000ed0394b9b885b0001221343354a5362f1
:104e3400d369002bfcd1344a20330321d15499e7a0
:104e4400304a5168c0239b020b435360d369002b43
:104e5400fcd12d4a20330621d1548be72a4bd96942
:104e64005b69013b8b420cd0264ad369002bfcd1f1
:104e7400254bda68234d2820285c50540131d96130
:104e840078e7204a5068e023db0203435360d36988
:104e9400002bfcd11c4a20330620d054e4e7202305
:104ea4000021d154174a5168c0239b020b4353601d
:104eb400d369002bfcd1134b83221a76124b5b6a05
:104ec400002b00d163e7104b5b6a200098475ee734
:104ed4001300002220215a5401315a54094b8332c1
:104ee4001a761900533a4b8b1340102bfbd1064b07
:104ef4005b6a002b00d14ae7034b5b6a20009847aa
:0c4f040045e7c04600140042384b002076
:020000040000fa
:104f1000f8b5624b1b78dbb2012b15d0002b03d008
:104f2000022b00d1b5e0f8bd04f08afa0328fad1cb
:104f30000121023803f0eeff0121002003f0eaff17
:104f4000564b01221a70eee7554c8022d200002108
:104f5000200004f0abf904f05bf80100200002f03f
:104f60004bf9050083b24f4a1380002bdbd04e4a29
:104f7000108880242401241aa4b24c4a1480a3422d
:104f800014d94b4e8019464f2200390004f084f9a1
:104f90002a04120c121be119300004f07df92b04d5
:104fa0000025002bbfd0434e434f3fe0404bc0187d
:104fb0002a04120c3a4904f06ff9f0e73a4b1b88c7
:104fc0003b4ad35caa2b25d13a4b01221a7021e02f
:104fd000354b1b88364ad35caa2b03d0354b0022b5
:104fe0001a7017e0334b02221a7013e02e4b1b8805
:104ff0002f4ad25c314b1a700023314a1370314a68
:1050000013708022520000212f4804f04ff9294be1
:1050100003221a700135244a138801335b055b0da6
:105020001380204b1b88ab4200dc7ce73378042bd9
:10503000f0d89b00fb589f4621490b781a4a1288ea
:105040001b48825c2048c2541e4804781219027022
:105050000133dbb20b70194a12789a42dad8154b39
:1050600004221a70d6e7174b1b78db43dbb2154ad4
:1050700013700d4a12880e498a5c9a4203d00d4b78
:1050800000221a70c6e70d4b19780f48fff782f916
:10509000f5e7024b03221a7045e7c046484c002052
:1050a000d03f00204a4c00204c4c00204e4c0020a9
:1050b000cc2b0020604c0020349200005c4c00207f
:0c50c0005d4c00205b4c0020b04700203d
:020000040000fa
:1050cc00f0b545465746de464e46e0b5884687b0b5
:1050dc0007001d00002800d1a3e00469002c00dcaf
:1050ec009fe0002900d19ce04b68002b00dc98e08d
:1050fc000020002a00d195e05368012b00d091e0ec
:10510c00002d00d18ee01368a246186803f0eefa69
:10511c00010006008020400001f0d6fe002302931f
:10512c004346b84605900395049343465b69049a3d
:10513c009c46434612689b6a0192029a019952005e
:10514c00545e1b6824011c19802351469b009a4510
:10515c0000dd19005346002b0fdd65460022b446d6
:10516c00a7684248a688531933405b00db5f0132c5
:10517c00038002308a42f5db664651463b48fff716
:10518c00d9fd8022394c92002300944663440500db
:10519c009946b2460023e85e03f026fe071c022364
:1051ac00e85e0435404303f01ffe391c061c381c16
:1051bc0001f07bfd011c301c00f09efd03f052f948
:1051cc0001f088f803f020fc20800234a145e1d1e5
:1051dc0005995646012945dd00240025244b012262
:1051ec009f1c3800a346a9468a4600215b5e022e0e
:1051fc000cdd51008c460400022101920022a55eb8
:10520c0001316b4364448e42f8d1019a4b4501dd68
:10521c009346994601323b000430524509d002377f
:10522c00e3e7002007b03cbc90469946a246ab464b
:10523c00f0bd584603f0d8fd041c484603f0d4fddd
:10524c00039b0499029a586048681c600132083329
:10525c0002920393904203dd43461b699a4664e72e
:10526c004000dfe70020041ceae7c04600000020f5
:04527c00020000200c
:020000040000fa
:10528000f0b5de4657464e464546e0b583b0844607
:1052900091461a00002936d0002834d0614b5b6853
:1052a00007201840019042d14b46002b00d19ae0d4
:1052b0005c4b1b7e5b0705d55a4b04259c6a1c7e04
:1052c0002c42fbd1574b5c8b04252c435c831c7e0a
:1052d00080252c431c7600239a468a4201d9531a12
:1052e0009a46019b002b04d05208490853465b089c
:1052f0009a464c4d01242b7e2342fcd00023984635
:10530000484c04272ae00020002a61d04b46002b9d
:1053100065d0444b5b6807301840019000d175e0c0
:10532000002900d078e0d30705d5002050e0cb0756
:1053300057d4002af7d163465c1ea3415b42194053
:10534000b2e75d006646ad5bed05ed0da56201338c
:10535000002a10d10126257e3542fcd08b4224d074
:1053600001980028edd16546ed5ca5620133efe7b9
:105370002d4da56221e0257e3d42fcd0a56a9045d9
:10538000ecd20198002806d14e4640463554012003
:105390008346d844e2e740464600ed05ed0d484619
:1053a000355201208346d844d8e75546002d09d010
:1053b00001980028dcd1ff25a56201256d42ab468e
:1053c000da44c5e7174902220b7e1342fcd00120c4
:1053d00003b03cbc90469946a246ab46f0bd0020c7
:1053e000f6e70020f4e70f4b1b7e00225b0700d599
:1053f00062e70c4b5a8b042422435a831a7e802482
:1054000022431a76002200239a466ae76346002b5d
:1054100000d049e701994be7cb0700d483e7002090
:0c542000d6e7c04600180042ff01000063
:020000040000fa
:10542c00f0b5de46454657464e46e0b587b004908b
:10543c008b461d00002800d1abe00469002c00dc79
:10544c00a7e0002900d1a4e04b68002b00dca0e011
:10545c000020002a00d19de05368012b00d099e078
:10546c00002d00d196e01368186803f03ff9010095
:10547c0082468020400001f027fd2b1d0393430042
:10548c0001930023a446059002935946049b029a6b
:10549c0009685c6952009b6a565e1b6836019e194e
:1054ac00802367469b009c4500dd1f006346002b54
:1054bc000cdd0022b1683c48b58813192b405b0009
:1054cc005b5e0132038002309742f5dc6146364860
:1054dc00fff730fc8022344c920023009446634446
:1054ec00050098460023e85e03f07efc061c0223b0
:1054fc00e85e0435404303f077fc311c071c301c7c
:10550c0001f0d3fb011c381c00f0f6fb02f0aaffe3
:10551c0000f0e0fe03f078fa20800234a045e1d1df
:10552c00059b012b27dd214b02249946039b9846b2
:10553c001d4b185f03f058fc434618605346051c7e
:10554c00022b10dd4f4602260023f85e03f04cfcc4
:10555c00011c281c01f0a9fb0136051c3f19b245a2
:10556c00f2d14346186004239c46019b0234e0446c
:10557c00e144a342dcd1039a029b083203925a46bf
:10558c005268013302939a420bdd049b1b699c46c3
:10559c007be7002007b03cbc90469946a246ab4640
:1055ac00f0bd0198f6e7c046000000200400002082
:020000040000fa
:1055bc0008d1002806d1f54204d801d3002a01d124
:1055cc006d0d09d10020c143090dc904f0bdf9d1fd
:1055dc001242f7d1640df5d00020c14349054908aa
:1055ec00a6e000206146f0bdf0b50127ff070e00d4
:1055fc005e403e40b446be0a4c18dd18f442d7d289
:10560c00f542e4d2640decd06d0dead06419c902f8
:10561c003943460dc0023143db023b43db0a10b475
:10562c008e4685b297b26f43140c6c433e0ca41992
:10563c00260c2404bfb227439cb26c43a419190c4a
:10564c006943250ca4b249190d04090c6419000c0a
:10565c0095b245433e0c76193743bfb2360c150c48
:10566c004543ad19a6b2240cad192e0437432e0cac
:10567c0036199db24543ad19acb22e0c89191d0ccf
:10568c0045436d182e04290c3443704680b295b2f4
:10569c0045433e0c76193743bfb2360c150c4543c7
:1056ac00ad19a6b2ad19240c2e0437432e0c3619a5
:1056bc009db24543ad19acb22e0c89191d0c454356
:1056cc006d182e043443290c75462d0c90b268438a
:1056dc003e0c80190604bfb23e43070ca0b23f1823
:1056ec00120c6a43d019020c80b2240ca4189ab282
:1056fc006a43121914042043120c89181b0c6b43b7
:10570c00c91810bc01273d05294203d1b6194041e7
:10571c004941013cff077d0d013d641b0bdb6d0016
:10572c00ac4209da240500254208be4168416141ba
:0a573c0066463143f0bd54e74ee726
:020000040000fa
:02574600fee77c
:020000040000fa
:1057480010b500230400080007490a6813800133d4
:10575800226a4b6003f00afca36a216a18685a6837
:1057680002f01efd012010bd684c00206423f0b536
:10577800c6464b43c418a36a00b51868a169fef76a
:10578800f5fd071e15dd002300250c4e984602e0a6
:105798000135af420dd0a369e26a0133a3614346e4
:1057a80031002000736003f059fb0028f0d001207d
:1057b80001e00120404204bc9046f0bd684c002046
:1057c800f8b5de4657464e464546e0b52a4c026bcc
:1057d8000f00a368294905001688007f1960012376
:1057e8009946e36000239a468b4651462368464310
:1057f80019804b466360536808229046b100a04464
:1058080042465b1828002100fff70cfe5a46a368a1
:1058180038601a604b465246e360236886191a803e
:105828004b4663602b6bb2005b6821009b18280015
:105838004246fff747fc8322a368d20538601a6006
:1058480000225a6002235246e360236880191a80b6
:105858004b4663602b6b80005b6842461b18210037
:10586800280000f0dff9386001203cbc90469946da
:10587800a246ab46f8bdc046684c00200000a040d8
:1058880070b5416b056b0a4e84b02c88037f4a883b
:1058980068680396074e0133029600260196ed7854
:1058a80063436c43009401f06bf8012004b070bdb1
:1058b800784c002000007f4310b5826b416b407a22
:0858c800fbf708ff10bdc0460c
:020000040000fa
:1058d000b5b5b6b7b7b8b9b9babbbbbcbdbdbebf2d
:1058e000c0c0c1c1c2c3c3c4c5c5c6c7c7c8c9c972
:1058f000cacbcbcccccdcececfd0d0d1d1d2d3d3be
:10590000d4d4d5d6d6d7d7d8d9d9dadadbdbdcdd13
:10591000dddededfe0e0e1e1e2e2e3e3e4e5e5e66f
:10592000e6e7e7e8e8e9eaeaebebececededeeeed2
:10593000eff0f0f1f1f2f2f3f3f4f4f5f5f6f6f737
:10594000f7f8f8f9f9fafafbfbfcfcfdfdfefeffa7
:105950008080808181828283838484858586868716
:1059600087888889898a8a8b8b8b8c8c8d8d8e8e8b
:105970008f8f909090919192929393939494959508
:10598000969696979798989999999a9a9b9b9b9c8b
:105990009c9d9d9d9e9e9f9fa0a0a0a1a1a1a2a213
:1059a000a3a3a3a4a4a5a5a5a6a6a7a7a7a8a8a89e
:1059b000a9a9aaaaaaabababacacadadadaeaeae2d
:1059c000afafb0b0b0b1b1b1b2b2b2b3b3b3b4b4bf
:1059d000b3b2b0afaeadabaaa9a8a7a6a5a3a2a12a
:1059e000a09f9e9e9d9c9b9a99989796969594931e
:1059f00093929190908f8e8e8d8c8b8b8a8a8988d2
:105a0000888787868585848483838282818180805c
